{ nonce: 94,
  gasPrice: '239',
  gasLimit: 21000,
  to: '0x713b8a1695e5dfa583e9a9ca5febfb779b6497c8',
  value: 0,
  data: '0x3db2fdef' }

  //once you signed the tx it gives you

  { messageHash: '0xf891229f56a094bcc50d4ad2b6ce0c8cc84764b7328e20054d106ba9d145a4ef',
  v: '0x2d',
  r: '0xdb2ec1b5f322aee3b6a494049e5b1d5fb3627b48074b7650f3a9873ce9b56dc0',
  s: '0x3e475e8c930a49d32428dd063efa59009fd05880a6ce7f96031620a546c1dc0d',
  rawTransaction: '0xf8655e81ef8303345094713b8a1695e5dfa583e9a9ca5febfb779b6497c880843db2fdef2da0db2ec1b5f322aee3b6a494049e5b1d5fb3627b48074b7650f3a9873ce9b56dc0a03e475e8c930a49d32428dd063efa59009fd05880a6ce7f96031620a546c1dc0d',
  transactionHash: '0xff07d0e255e0ee74e86e5dba18043ff1114e2f9e498b2b89bd265a54be1435dd' }

  //once signed and sended it gives us 

  { blockHash: '0xa3562b588455259ccae7dd699f9dcbda672b6e3f8ed5fb7e833edb2c1d1762dc',
  blockNumber: 8206410,
  contractAddress: null,
  cumulativeGasUsed: 9401210,
  effectiveGasPrice: 239,
  from: '0xfb562a84e3b2b4f00de2d23ce44b215169a7ee87',
  gasUsed: 45684,
  logs: [],
  logsBloom: '0x00000000000000000000000000000000000000000000000000000000000000000000000000000000000000000000000000000000000000000000000000000000000000000000000000000000000000000000000000000000000000000000000000000000000000000000000000000000000000000000000000000000000000000000000000000000000000000000000000000000000000000000000000000000000000000000000000000000000000000000000000000000000000000000000000000000000000000000000000000000000000000000000000000000000000000000000000000000000000000000000000000000000000000000000000000000',
  status: true,
  to: '0x713b8a1695e5dfa583e9a9ca5febfb779b6497c8',
  transactionHash: '0xff07d0e255e0ee74e86e5dba18043ff1114e2f9e498b2b89bd265a54be1435dd',
  transactionIndex: 57,
  type: '0x0' }
  ​​​​​at ​​​​​​​​receipt​​​ ​sendingtesteo.js:15:1